{
  "_format": "hh-sol-artifact-1",
  "contractName": "MyEpicNFT",
  "sourceName": "contracts/MyEpicNFT.sol",
  "abi": [
    {
      "inputs": [],
      "stateMutability": "nonpayable",
      "type": "constructor"
    },
    {
      "anonymous": false,
      "inputs": [
        {
          "indexed": true,
          "internalType": "address",
          "name": "owner",
          "type": "address"
        },
        {
          "indexed": true,
          "internalType": "address",
          "name": "approved",
          "type": "address"
        },
        {
          "indexed": true,
          "internalType": "uint256",
          "name": "tokenId",
          "type": "uint256"
        }
      ],
      "name": "Approval",
      "type": "event"
    },
    {
      "anonymous": false,
      "inputs": [
        {
          "indexed": true,
          "internalType": "address",
          "name": "owner",
          "type": "address"
        },
        {
          "indexed": true,
          "internalType": "address",
          "name": "operator",
          "type": "address"
        },
        {
          "indexed": false,
          "internalType": "bool",
          "name": "approved",
          "type": "bool"
        }
      ],
      "name": "ApprovalForAll",
      "type": "event"
    },
    {
      "anonymous": false,
      "inputs": [
        {
          "indexed": false,
          "internalType": "address",
          "name": "sender",
          "type": "address"
        },
        {
          "indexed": false,
          "internalType": "uint256",
          "name": "tokenId",
          "type": "uint256"
        }
      ],
      "name": "NewEpicNFTMinted",
      "type": "event"
    },
    {
      "anonymous": false,
      "inputs": [
        {
          "indexed": true,
          "internalType": "address",
          "name": "from",
          "type": "address"
        },
        {
          "indexed": true,
          "internalType": "address",
          "name": "to",
          "type": "address"
        },
        {
          "indexed": true,
          "internalType": "uint256",
          "name": "tokenId",
          "type": "uint256"
        }
      ],
      "name": "Transfer",
      "type": "event"
    },
    {
      "inputs": [
        {
          "internalType": "address",
          "name": "to",
          "type": "address"
        },
        {
          "internalType": "uint256",
          "name": "tokenId",
          "type": "uint256"
        }
      ],
      "name": "approve",
      "outputs": [],
      "stateMutability": "nonpayable",
      "type": "function"
    },
    {
      "inputs": [
        {
          "internalType": "address",
          "name": "owner",
          "type": "address"
        }
      ],
      "name": "balanceOf",
      "outputs": [
        {
          "internalType": "uint256",
          "name": "",
          "type": "uint256"
        }
      ],
      "stateMutability": "view",
      "type": "function"
    },
    {
      "inputs": [
        {
          "internalType": "uint256",
          "name": "tokenId",
          "type": "uint256"
        }
      ],
      "name": "getApproved",
      "outputs": [
        {
          "internalType": "address",
          "name": "",
          "type": "address"
        }
      ],
      "stateMutability": "view",
      "type": "function"
    },
    {
      "inputs": [],
      "name": "getTotalNFTsMintedSoFar",
      "outputs": [
        {
          "internalType": "uint256",
          "name": "",
          "type": "uint256"
        }
      ],
      "stateMutability": "view",
      "type": "function"
    },
    {
      "inputs": [
        {
          "internalType": "address",
          "name": "owner",
          "type": "address"
        },
        {
          "internalType": "address",
          "name": "operator",
          "type": "address"
        }
      ],
      "name": "isApprovedForAll",
      "outputs": [
        {
          "internalType": "bool",
          "name": "",
          "type": "bool"
        }
      ],
      "stateMutability": "view",
      "type": "function"
    },
    {
      "inputs": [],
      "name": "makeAnEpicNFT",
      "outputs": [],
      "stateMutability": "nonpayable",
      "type": "function"
    },
    {
      "inputs": [],
      "name": "name",
      "outputs": [
        {
          "internalType": "string",
          "name": "",
          "type": "string"
        }
      ],
      "stateMutability": "view",
      "type": "function"
    },
    {
      "inputs": [
        {
          "internalType": "uint256",
          "name": "tokenId",
          "type": "uint256"
        }
      ],
      "name": "ownerOf",
      "outputs": [
        {
          "internalType": "address",
          "name": "",
          "type": "address"
        }
      ],
      "stateMutability": "view",
      "type": "function"
    },
    {
      "inputs": [
        {
          "internalType": "uint256",
          "name": "tokenId",
          "type": "uint256"
        }
      ],
      "name": "pickRandomColor",
      "outputs": [
        {
          "internalType": "string",
          "name": "",
          "type": "string"
        }
      ],
      "stateMutability": "view",
      "type": "function"
    },
    {
      "inputs": [
        {
          "internalType": "uint256",
          "name": "tokenId",
          "type": "uint256"
        }
      ],
      "name": "pickRandomFirstWord",
      "outputs": [
        {
          "internalType": "string",
          "name": "",
          "type": "string"
        }
      ],
      "stateMutability": "view",
      "type": "function"
    },
    {
      "inputs": [
        {
          "internalType": "uint256",
          "name": "tokenId",
          "type": "uint256"
        }
      ],
      "name": "pickRandomSecondWord",
      "outputs": [
        {
          "internalType": "string",
          "name": "",
          "type": "string"
        }
      ],
      "stateMutability": "view",
      "type": "function"
    },
    {
      "inputs": [
        {
          "internalType": "uint256",
          "name": "tokenId",
          "type": "uint256"
        }
      ],
      "name": "pickRandomThirdWord",
      "outputs": [
        {
          "internalType": "string",
          "name": "",
          "type": "string"
        }
      ],
      "stateMutability": "view",
      "type": "function"
    },
    {
      "inputs": [
        {
          "internalType": "address",
          "name": "from",
          "type": "address"
        },
        {
          "internalType": "address",
          "name": "to",
          "type": "address"
        },
        {
          "internalType": "uint256",
          "name": "tokenId",
          "type": "uint256"
        }
      ],
      "name": "safeTransferFrom",
      "outputs": [],
      "stateMutability": "nonpayable",
      "type": "function"
    },
    {
      "inputs": [
        {
          "internalType": "address",
          "name": "from",
          "type": "address"
        },
        {
          "internalType": "address",
          "name": "to",
          "type": "address"
        },
        {
          "internalType": "uint256",
          "name": "tokenId",
          "type": "uint256"
        },
        {
          "internalType": "bytes",
          "name": "_data",
          "type": "bytes"
        }
      ],
      "name": "safeTransferFrom",
      "outputs": [],
      "stateMutability": "nonpayable",
      "type": "function"
    },
    {
      "inputs": [
        {
          "internalType": "address",
          "name": "operator",
          "type": "address"
        },
        {
          "internalType": "bool",
          "name": "approved",
          "type": "bool"
        }
      ],
      "name": "setApprovalForAll",
      "outputs": [],
      "stateMutability": "nonpayable",
      "type": "function"
    },
    {
      "inputs": [
        {
          "internalType": "bytes4",
          "name": "interfaceId",
          "type": "bytes4"
        }
      ],
      "name": "supportsInterface",
      "outputs": [
        {
          "internalType": "bool",
          "name": "",
          "type": "bool"
        }
      ],
      "stateMutability": "view",
      "type": "function"
    },
    {
      "inputs": [],
      "name": "symbol",
      "outputs": [
        {
          "internalType": "string",
          "name": "",
          "type": "string"
        }
      ],
      "stateMutability": "view",
      "type": "function"
    },
    {
      "inputs": [
        {
          "internalType": "uint256",
          "name": "tokenId",
          "type": "uint256"
        }
      ],
      "name": "tokenURI",
      "outputs": [
        {
          "internalType": "string",
          "name": "",
          "type": "string"
        }
      ],
      "stateMutability": "view",
      "type": "function"
    },
    {
      "inputs": [
        {
          "internalType": "address",
          "name": "from",
          "type": "address"
        },
        {
          "internalType": "address",
          "name": "to",
          "type": "address"
        },
        {
          "internalType": "uint256",
          "name": "tokenId",
          "type": "uint256"
        }
      ],
      "name": "transferFrom",
      "outputs": [],
      "stateMutability": "nonpayable",
      "type": "function"
    }
  ],
  "bytecode": "0x608060405260405180610120016040528060f58152602001620048e760f591396008908051906020019062000036929190620008a5565b50604051806080016040528060428152602001620048a5604291396009908051906020019062000068929190620008a5565b506040518060400160405280602081526020017f3c2f747370616e3e3c747370616e20783d27353025272064793d27313225273e815250600a9080519060200190620000b6929190620008a5565b506040518060400160405280602081526020017f3c2f747370616e3e3c747370616e20783d27353025272064793d27313225273e815250600b908051906020019062000104929190620008a5565b506040518060400160405280601581526020017f3c2f747370616e3e3c2f746578743e3c2f7376673e0000000000000000000000815250600c908051906020019062000152929190620008a5565b506040518060c001604052806040518060400160405280600581526020017f427261766500000000000000000000000000000000000000000000000000000081525081526020016040518060400160405280600481526020017f4b696e640000000000000000000000000000000000000000000000000000000081525081526020016040518060400160405280600481526020017f466169720000000000000000000000000000000000000000000000000000000081525081526020016040518060400160405280600681526020017f4d6f64657374000000000000000000000000000000000000000000000000000081525081526020016040518060400160405280600481526020017f576973650000000000000000000000000000000000000000000000000000000081525081526020016040518060400160405280600681526020017f5374726f6e670000000000000000000000000000000000000000000000000000815250815250600d906006620002d092919062000936565b506040518060a001604052806040518060400160405280600a81526020017f456d70617468657469630000000000000000000000000000000000000000000081525081526020016040518060400160405280600981526020017f526573696c69656e74000000000000000000000000000000000000000000000081525081526020016040518060400160405280600781526020017f43756e6e696e670000000000000000000000000000000000000000000000000081525081526020016040518060400160405280600681526020017f48756d626c65000000000000000000000000000000000000000000000000000081525081526020016040518060400160405280600a81526020017f4f7074696d697374696300000000000000000000000000000000000000000000815250815250600e906005620004139291906200099d565b506040518060a001604052806040518060400160405280600581526020017f53746f696300000000000000000000000000000000000000000000000000000081525081526020016040518060400160405280600781526020017f53657276616e740000000000000000000000000000000000000000000000000081525081526020016040518060400160405280600781526020017f53747564656e740000000000000000000000000000000000000000000000000081525081526020016040518060400160405280600681526020017f4c6561646572000000000000000000000000000000000000000000000000000081525081526020016040518060400160405280600b81526020017f5068696c6f736f70686572000000000000000000000000000000000000000000815250815250600f906005620005569291906200099d565b506040518060c001604052806040518060400160405280600781526020017f233236343635330000000000000000000000000000000000000000000000000081525081526020016040518060400160405280600781526020017f233241394438460000000000000000000000000000000000000000000000000081525081526020016040518060400160405280600781526020017f234539433436410000000000000000000000000000000000000000000000000081525081526020016040518060400160405280600781526020017f234634413236310000000000000000000000000000000000000000000000000081525081526020016040518060400160405280600781526020017f234537364635310000000000000000000000000000000000000000000000000081525081526020016040518060400160405280600781526020017f23303030303030000000000000000000000000000000000000000000000000008152508152506010906006620006d492919062000936565b506037601155348015620006e757600080fd5b506040518060400160405280600881526020017f53746f69634e46540000000000000000000000000000000000000000000000008152506040518060400160405280600681526020017f535155415245000000000000000000000000000000000000000000000000000081525081600090805190602001906200076c929190620008a5565b50806001908051906020019062000785929190620008a5565b505050620007d36040518060400160405280601e81526020017f54686973206973206d79204e465420636f6e74726163742e20576f6168210000815250620007d960201b620012b51760201c565b62000bbe565b6200087981604051602401620007f0919062000ad2565b6040516020818303038152906040527f41304fac000000000000000000000000000000000000000000000000000000007bffffffffffffffffffffffffffffffffffffffffffffffffffffffff19166020820180517bffffffffffffffffffffffffffffffffffffffffffffffffffffffff83818316178352505050506200087c60201b60201c565b50565b60008151905060006a636f6e736f6c652e6c6f679050602083016000808483855afa5050505050565b828054620008b39062000b48565b90600052602060002090601f016020900481019282620008d7576000855562000923565b82601f10620008f257805160ff191683800117855562000923565b8280016001018555821562000923579182015b828111156200092257825182559160200191906001019062000905565b5b50905062000932919062000a04565b5090565b8280548282559060005260206000209081019282156200098a579160200282015b828111156200098957825182908051906020019062000978929190620008a5565b509160200191906001019062000957565b5b50905062000999919062000a23565b5090565b828054828255906000526020600020908101928215620009f1579160200282015b82811115620009f0578251829080519060200190620009df929190620008a5565b5091602001919060010190620009be565b5b50905062000a00919062000a23565b5090565b5b8082111562000a1f57600081600090555060010162000a05565b5090565b5b8082111562000a47576000818162000a3d919062000a4b565b5060010162000a24565b5090565b50805462000a599062000b48565b6000825580601f1062000a6d575062000a8e565b601f01602090049060005260206000209081019062000a8d919062000a04565b5b50565b600062000a9e8262000af6565b62000aaa818562000b01565b935062000abc81856020860162000b12565b62000ac78162000bad565b840191505092915050565b6000602082019050818103600083015262000aee818462000a91565b905092915050565b600081519050919050565b600082825260208201905092915050565b60005b8381101562000b3257808201518184015260208101905062000b15565b8381111562000b42576000848401525b50505050565b6000600282049050600182168062000b6157607f821691505b6020821081141562000b785762000b7762000b7e565b5b50919050565b7f4e487b7100000000000000000000000000000000000000000000000000000000600052602260045260246000fd5b6000601f19601f8301169050919050565b613cd78062000bce6000396000f3fe608060405234801561001057600080fd5b50600436106101215760003560e01c80636352211e116100ad578063b88d4fde11610071578063b88d4fde14610340578063c575757a1461035c578063c87b56dd1461038c578063de9d132f146103bc578063e985e9c5146103c657610121565b80636352211e1461027657806370a08231146102a657806395d89b41146102d6578063a22cb465146102f4578063b187301f1461031057610121565b8063095ea7b3116100f4578063095ea7b3146101c257806323b872dd146101de5780632de38d68146101fa57806342842e0e1461022a578063514dc8c61461024657610121565b806301ffc9a714610126578063060475901461015657806306fdde0314610174578063081812fc14610192575b600080fd5b610140600480360381019061013b91906126e1565b6103f6565b60405161014d9190612e80565b60405180910390f35b61015e6104d8565b60405161016b919061311b565b60405180910390f35b61017c6104e9565b6040516101899190612e9b565b60405180910390f35b6101ac60048036038101906101a79190612733565b61057b565b6040516101b99190612df0565b60405180910390f35b6101dc60048036038101906101d791906126a5565b610600565b005b6101f860048036038101906101f3919061259f565b610718565b005b610214600480360381019061020f9190612733565b610778565b6040516102219190612e9b565b60405180910390f35b610244600480360381019061023f919061259f565b610896565b005b610260600480360381019061025b9190612733565b6108b6565b60405161026d9190612e9b565b60405180910390f35b610290600480360381019061028b9190612733565b6109d4565b60405161029d9190612df0565b60405180910390f35b6102c060048036038101906102bb919061253a565b610a86565b6040516102cd919061311b565b60405180910390f35b6102de610b3e565b6040516102eb9190612e9b565b60405180910390f35b61030e60048036038101906103099190612669565b610bd0565b005b61032a60048036038101906103259190612733565b610be6565b6040516103379190612e9b565b60405180910390f35b61035a600480360381019061035591906125ee565b610d04565b005b61037660048036038101906103719190612733565b610d66565b6040516103839190612e9b565b60405180910390f35b6103a660048036038101906103a19190612733565b610e84565b6040516103b39190612e9b565b60405180910390f35b6103c4610fd6565b005b6103e060048036038101906103db9190612563565b611221565b6040516103ed9190612e80565b60405180910390f35b60007f80ac58cd000000000000000000000000000000000000000000000000000000007bffffffffffffffffffffffffffffffffffffffffffffffffffffffff1916827bffffffffffffffffffffffffffffffffffffffffffffffffffffffff191614806104c157507f5b5e139f000000000000000000000000000000000000000000000000000000007bffffffffffffffffffffffffffffffffffffffffffffffffffffffff1916827bffffffffffffffffffffffffffffffffffffffffffffffffffffffff1916145b806104d157506104d08261134e565b5b9050919050565b60006104e460076113b8565b905090565b6060600080546104f8906133af565b80601f0160208091040260200160405190810160405280929190818152602001828054610524906133af565b80156105715780601f1061054657610100808354040283529160200191610571565b820191906000526020600020905b81548152906001019060200180831161055457829003601f168201915b5050505050905090565b6000610586826113c6565b6105c5576040517f08c379a00000000000000000000000000000000000000000000000000000000081526004016105bc9061307b565b60405180910390fd5b6004600083815260200190815260200160002060009054906101000a900473ffffffffffffffffffffffffffffffffffffffff169050919050565b600061060b826109d4565b90508073ffffffffffffffffffffffffffffffffffffffff168373ffffffffffffffffffffffffffffffffffffffff16141561067c576040517f08c379a0000000000000000000000000000000000000000000000000000000008152600401610673906130bb565b60405180910390fd5b8073ffffffffffffffffffffffffffffffffffffffff1661069b611432565b73ffffffffffffffffffffffffffffffffffffffff1614806106ca57506106c9816106c4611432565b611221565b5b610709576040517f08c379a000000000000000000000000000000000000000000000000000000000815260040161070090612fbb565b60405180910390fd5b610713838361143a565b505050565b610729610723611432565b826114f3565b610768576040517f08c379a000000000000000000000000000000000000000000000000000000000815260040161075f906130fb565b60405180910390fd5b6107738383836115d1565b505050565b606060006107ac61078884611838565b6040516020016107989190612d8a565b6040516020818303038152906040526119e5565b9050600d80549050816107bf919061345b565b9050600d81815481106107fb577f4e487b7100000000000000000000000000000000000000000000000000000000600052603260045260246000fd5b906000526020600020018054610810906133af565b80601f016020809104026020016040519081016040528092919081815260200182805461083c906133af565b80156108895780601f1061085e57610100808354040283529160200191610889565b820191906000526020600020905b81548152906001019060200180831161086c57829003601f168201915b5050505050915050919050565b6108b183838360405180602001604052806000815250610d04565b505050565b606060006108ea6108c684611838565b6040516020016108d69190612dce565b6040516020818303038152906040526119e5565b9050601080549050816108fd919061345b565b905060108181548110610939577f4e487b7100000000000000000000000000000000000000000000000000000000600052603260045260246000fd5b90600052602060002001805461094e906133af565b80601f016020809104026020016040519081016040528092919081815260200182805461097a906133af565b80156109c75780601f1061099c576101008083540402835291602001916109c7565b820191906000526020600020905b8154815290600101906020018083116109aa57829003601f168201915b5050505050915050919050565b6000806002600084815260200190815260200160002060009054906101000a900473ffffffffffffffffffffffffffffffffffffffff169050600073ffffffffffffffffffffffffffffffffffffffff168173ffffffffffffffffffffffffffffffffffffffff161415610a7d576040517f08c379a0000000000000000000000000000000000000000000000000000000008152600401610a7490612ffb565b60405180910390fd5b80915050919050565b60008073ffffffffffffffffffffffffffffffffffffffff168273ffffffffffffffffffffffffffffffffffffffff161415610af7576040517f08c379a0000000000000000000000000000000000000000000000000000000008152600401610aee90612fdb565b60405180910390fd5b600360008373ffffffffffffffffffffffffffffffffffffffff1673ffffffffffffffffffffffffffffffffffffffff168152602001908152602001600020549050919050565b606060018054610b4d906133af565b80601f0160208091040260200160405190810160405280929190818152602001828054610b79906133af565b8015610bc65780601f10610b9b57610100808354040283529160200191610bc6565b820191906000526020600020905b815481529060010190602001808311610ba957829003601f168201915b5050505050905090565b610be2610bdb611432565b8383611a18565b5050565b60606000610c1a610bf684611838565b604051602001610c069190612d23565b6040516020818303038152906040526119e5565b9050600e8054905081610c2d919061345b565b9050600e8181548110610c69577f4e487b7100000000000000000000000000000000000000000000000000000000600052603260045260246000fd5b906000526020600020018054610c7e906133af565b80601f0160208091040260200160405190810160405280929190818152602001828054610caa906133af565b8015610cf75780601f10610ccc57610100808354040283529160200191610cf7565b820191906000526020600020905b815481529060010190602001808311610cda57829003601f168201915b5050505050915050919050565b610d15610d0f611432565b836114f3565b610d54576040517f08c379a0000000000000000000000000000000000000000000000000000000008152600401610d4b906130fb565b60405180910390fd5b610d6084848484611b85565b50505050565b60606000610d9a610d7684611838565b604051602001610d869190612d01565b6040516020818303038152906040526119e5565b9050600f8054905081610dad919061345b565b9050600f8181548110610de9577f4e487b7100000000000000000000000000000000000000000000000000000000600052603260045260246000fd5b906000526020600020018054610dfe906133af565b80601f0160208091040260200160405190810160405280929190818152602001828054610e2a906133af565b8015610e775780601f10610e4c57610100808354040283529160200191610e77565b820191906000526020600020905b815481529060010190602001808311610e5a57829003601f168201915b5050505050915050919050565b6060610e8f826113c6565b610ece576040517f08c379a0000000000000000000000000000000000000000000000000000000008152600401610ec59061305b565b60405180910390fd5b6000600660008481526020019081526020016000208054610eee906133af565b80601f0160208091040260200160405190810160405280929190818152602001828054610f1a906133af565b8015610f675780601f10610f3c57610100808354040283529160200191610f67565b820191906000526020600020905b815481529060010190602001808311610f4a57829003601f168201915b505050505090506000610f78611be1565b9050600081511415610f8e578192505050610fd1565b600082511115610fc3578082604051602001610fab929190612c2d565b60405160208183030381529060405292505050610fd1565b610fcc84611bf8565b925050505b919050565b6000610fe260076113b8565b90506000610fef82610778565b90506000610ffc83610be6565b9050600061100984610d66565b90506000611016856108b6565b9050600084848460405160200161102f93929190612c51565b60405160208183030381529060405290506000600883600988600a89600b8a600c60405160200161106899989796959493929190612c82565b604051602081830303815290604052905060006110ad8361108884611c9f565b604051602001611099929190612d45565b604051602081830303815290604052611c9f565b90506000816040516020016110c29190612dac565b60405160208183030381529060405290506111116040518060400160405280601581526020017f0a2d2d2d2d2d2d2d2d2d2d2d2d2d2d2d2d2d2d2d2d00000000000000000000008152506112b5565b61111a816112b5565b6111586040518060400160405280601581526020017f2d2d2d2d2d2d2d2d2d2d2d2d2d2d2d2d2d2d2d2d0a00000000000000000000008152506112b5565b601154891061119c576040517f08c379a0000000000000000000000000000000000000000000000000000000008152600401611193906130db565b60405180910390fd5b6111a6338a611e5d565b6111b08982611e7b565b6111ba6007611eef565b6111dd604051806060016040528060258152602001613c3d602591398a33611f05565b7febb98688741ffa4c7589bf325de30cf7becb63de567842e1ccdb6cb949fdc82c338a60405161120e929190612e57565b60405180910390a1505050505050505050565b6000600560008473ffffffffffffffffffffffffffffffffffffffff1673ffffffffffffffffffffffffffffffffffffffff16815260200190815260200160002060008373ffffffffffffffffffffffffffffffffffffffff1673ffffffffffffffffffffffffffffffffffffffff16815260200190815260200160002060009054906101000a900460ff16905092915050565b61134b816040516024016112c99190612e9b565b6040516020818303038152906040527f41304fac000000000000000000000000000000000000000000000000000000007bffffffffffffffffffffffffffffffffffffffffffffffffffffffff19166020820180517bffffffffffffffffffffffffffffffffffffffffffffffffffffffff8381831617835250505050611fa4565b50565b60007f01ffc9a7000000000000000000000000000000000000000000000000000000007bffffffffffffffffffffffffffffffffffffffffffffffffffffffff1916827bffffffffffffffffffffffffffffffffffffffffffffffffffffffff1916149050919050565b600081600001549050919050565b60008073ffffffffffffffffffffffffffffffffffffffff166002600084815260200190815260200160002060009054906101000a900473ffffffffffffffffffffffffffffffffffffffff1673ffffffffffffffffffffffffffffffffffffffff1614159050919050565b600033905090565b816004600083815260200190815260200160002060006101000a81548173ffffffffffffffffffffffffffffffffffffffff021916908373ffffffffffffffffffffffffffffffffffffffff160217905550808273ffffffffffffffffffffffffffffffffffffffff166114ad836109d4565b73ffffffffffffffffffffffffffffffffffffffff167f8c5be1e5ebec7d5bd14f71427d1e84f3dd0314c0f7b2291e5b200ac8c7c3b92560405160405180910390a45050565b60006114fe826113c6565b61153d576040517f08c379a000000000000000000000000000000000000000000000000000000000815260040161153490612f9b565b60405180910390fd5b6000611548836109d4565b90508073ffffffffffffffffffffffffffffffffffffffff168473ffffffffffffffffffffffffffffffffffffffff1614806115b757508373ffffffffffffffffffffffffffffffffffffffff1661159f8461057b565b73ffffffffffffffffffffffffffffffffffffffff16145b806115c857506115c78185611221565b5b91505092915050565b8273ffffffffffffffffffffffffffffffffffffffff166115f1826109d4565b73ffffffffffffffffffffffffffffffffffffffff1614611647576040517f08c379a000000000000000000000000000000000000000000000000000000000815260040161163e90612f1b565b60405180910390fd5b600073ffffffffffffffffffffffffffffffffffffffff168273ffffffffffffffffffffffffffffffffffffffff1614156116b7576040517f08c379a00000000000000000000000000000000000000000000000000000000081526004016116ae90612f5b565b60405180910390fd5b6116c2838383611fcd565b6116cd60008261143a565b6001600360008573ffffffffffffffffffffffffffffffffffffffff1673ffffffffffffffffffffffffffffffffffffffff168152602001908152602001600020600082825461171d91906132c5565b925050819055506001600360008473ffffffffffffffffffffffffffffffffffffffff1673ffffffffffffffffffffffffffffffffffffffff168152602001908152602001600020600082825461177491906131e4565b92505081905550816002600083815260200190815260200160002060006101000a81548173ffffffffffffffffffffffffffffffffffffffff021916908373ffffffffffffffffffffffffffffffffffffffff160217905550808273ffffffffffffffffffffffffffffffffffffffff168473ffffffffffffffffffffffffffffffffffffffff167fddf252ad1be2c89b69c2b068fc378daa952ba7f163c4a11628f55a4df523b3ef60405160405180910390a4611833838383611fd2565b505050565b60606000821415611880576040518060400160405280600181526020017f300000000000000000000000000000000000000000000000000000000000000081525090506119e0565b600082905060005b600082146118b257808061189b90613412565b915050600a826118ab919061323a565b9150611888565b60008167ffffffffffffffff8111156118f4577f4e487b7100000000000000000000000000000000000000000000000000000000600052604160045260246000fd5b6040519080825280601f01601f1916602001820160405280156119265781602001600182028036833780820191505090505b5090505b600085146119d95760018261193f91906132c5565b9150600a8561194e919061345b565b603061195a91906131e4565b60f81b818381518110611996577f4e487b7100000000000000000000000000000000000000000000000000000000600052603260045260246000fd5b60200101907effffffffffffffffffffffffffffffffffffffffffffffffffffffffffffff1916908160001a905350600a856119d2919061323a565b945061192a565b8093505050505b919050565b6000816040516020016119f89190612c16565b6040516020818303038152906040528051906020012060001c9050919050565b8173ffffffffffffffffffffffffffffffffffffffff168373ffffffffffffffffffffffffffffffffffffffff161415611a87576040517f08c379a0000000000000000000000000000000000000000000000000000000008152600401611a7e90612f7b565b60405180910390fd5b80600560008573ffffffffffffffffffffffffffffffffffffffff1673ffffffffffffffffffffffffffffffffffffffff16815260200190815260200160002060008473ffffffffffffffffffffffffffffffffffffffff1673ffffffffffffffffffffffffffffffffffffffff16815260200190815260200160002060006101000a81548160ff0219169083151502179055508173ffffffffffffffffffffffffffffffffffffffff168373ffffffffffffffffffffffffffffffffffffffff167f17307eab39ab6107e8899845ad3d59bd9653f200f220920489ca2b5937696c3183604051611b789190612e80565b60405180910390a3505050565b611b908484846115d1565b611b9c84848484611fd7565b611bdb576040517f08c379a0000000000000000000000000000000000000000000000000000000008152600401611bd290612efb565b60405180910390fd5b50505050565b606060405180602001604052806000815250905090565b6060611c03826113c6565b611c42576040517f08c379a0000000000000000000000000000000000000000000000000000000008152600401611c399061309b565b60405180910390fd5b6000611c4c611be1565b90506000815111611c6c5760405180602001604052806000815250611c97565b80611c7684611838565b604051602001611c87929190612c2d565b6040516020818303038152906040525b915050919050565b60606000825190506000811415611cc85760405180602001604052806000815250915050611e58565b60006003600283611cd991906131e4565b611ce3919061323a565b6004611cef919061326b565b90506000602082611d0091906131e4565b67ffffffffffffffff811115611d3f577f4e487b7100000000000000000000000000000000000000000000000000000000600052604160045260246000fd5b6040519080825280601f01601f191660200182016040528015611d715781602001600182028036833780820191505090505b5090506000604051806060016040528060408152602001613c62604091399050600181016020830160005b86811015611e155760038101905062ffffff818a015116603f8160121c168401518060081b905060ff603f83600c1c1686015116810190508060081b905060ff603f8360061c1686015116810190508060081b905060ff603f831686015116810190508060e01b90508084526004840193505050611d9c565b506003860660018114611e2f5760028114611e3f57611e4a565b613d3d60f01b6002830352611e4a565b603d60f81b60018303525b508484525050819450505050505b919050565b611e7782826040518060200160405280600081525061216e565b5050565b611e84826113c6565b611ec3576040517f08c379a0000000000000000000000000000000000000000000000000000000008152600401611eba9061301b565b60405180910390fd5b80600660008481526020019081526020016000209080519060200190611eea9291906123c6565b505050565b6001816000016000828254019250508190555050565b611f9f838383604051602401611f1d93929190612ebd565b6040516020818303038152906040527fe3849f79000000000000000000000000000000000000000000000000000000007bffffffffffffffffffffffffffffffffffffffffffffffffffffffff19166020820180517bffffffffffffffffffffffffffffffffffffffffffffffffffffffff8381831617835250505050611fa4565b505050565b60008151905060006a636f6e736f6c652e6c6f679050602083016000808483855afa5050505050565b505050565b505050565b6000611ff88473ffffffffffffffffffffffffffffffffffffffff166121c9565b15612161578373ffffffffffffffffffffffffffffffffffffffff1663150b7a02612021611432565b8786866040518563ffffffff1660e01b81526004016120439493929190612e0b565b602060405180830381600087803b15801561205d57600080fd5b505af192505050801561208e57506040513d601f19601f8201168201806040525081019061208b919061270a565b60015b612111573d80600081146120be576040519150601f19603f3d011682016040523d82523d6000602084013e6120c3565b606091505b50600081511415612109576040517f08c379a000000000000000000000000000000000000000000000000000000000815260040161210090612efb565b60405180910390fd5b805181602001fd5b63150b7a0260e01b7bffffffffffffffffffffffffffffffffffffffffffffffffffffffff1916817bffffffffffffffffffffffffffffffffffffffffffffffffffffffff191614915050612166565b600190505b949350505050565b61217883836121ec565b6121856000848484611fd7565b6121c4576040517f08c379a00000000000000000000000000000000000000000000000000000000081526004016121bb90612efb565b60405180910390fd5b505050565b6000808273ffffffffffffffffffffffffffffffffffffffff163b119050919050565b600073ffffffffffffffffffffffffffffffffffffffff168273ffffffffffffffffffffffffffffffffffffffff16141561225c576040517f08c379a00000000000000000000000000000000000000000000000000000000081526004016122539061303b565b60405180910390fd5b612265816113c6565b156122a5576040517f08c379a000000000000000000000000000000000000000000000000000000000815260040161229c90612f3b565b60405180910390fd5b6122b160008383611fcd565b6001600360008473ffffffffffffffffffffffffffffffffffffffff1673ffffffffffffffffffffffffffffffffffffffff168152602001908152602001600020600082825461230191906131e4565b92505081905550816002600083815260200190815260200160002060006101000a81548173ffffffffffffffffffffffffffffffffffffffff021916908373ffffffffffffffffffffffffffffffffffffffff160217905550808273ffffffffffffffffffffffffffffffffffffffff16600073ffffffffffffffffffffffffffffffffffffffff167fddf252ad1be2c89b69c2b068fc378daa952ba7f163c4a11628f55a4df523b3ef60405160405180910390a46123c260008383611fd2565b5050565b8280546123d2906133af565b90600052602060002090601f0160209004810192826123f4576000855561243b565b82601f1061240d57805160ff191683800117855561243b565b8280016001018555821561243b579182015b8281111561243a57825182559160200191906001019061241f565b5b509050612448919061244c565b5090565b5b8082111561246557600081600090555060010161244d565b5090565b600061247c6124778461315b565b613136565b90508281526020810184848401111561249457600080fd5b61249f84828561336d565b509392505050565b6000813590506124b681613be0565b92915050565b6000813590506124cb81613bf7565b92915050565b6000813590506124e081613c0e565b92915050565b6000815190506124f581613c0e565b92915050565b600082601f83011261250c57600080fd5b813561251c848260208601612469565b91505092915050565b60008135905061253481613c25565b92915050565b60006020828403121561254c57600080fd5b600061255a848285016124a7565b91505092915050565b6000806040838503121561257657600080fd5b6000612584858286016124a7565b9250506020612595858286016124a7565b9150509250929050565b6000806000606084860312156125b457600080fd5b60006125c2868287016124a7565b93505060206125d3868287016124a7565b92505060406125e486828701612525565b9150509250925092565b6000806000806080858703121561260457600080fd5b6000612612878288016124a7565b9450506020612623878288016124a7565b935050604061263487828801612525565b925050606085013567ffffffffffffffff81111561265157600080fd5b61265d878288016124fb565b91505092959194509250565b6000806040838503121561267c57600080fd5b600061268a858286016124a7565b925050602061269b858286016124bc565b9150509250929050565b600080604083850312156126b857600080fd5b60006126c6858286016124a7565b92505060206126d785828601612525565b9150509250929050565b6000602082840312156126f357600080fd5b6000612701848285016124d1565b91505092915050565b60006020828403121561271c57600080fd5b600061272a848285016124e6565b91505092915050565b60006020828403121561274557600080fd5b600061275384828501612525565b91505092915050565b612765816132f9565b82525050565b6127748161330b565b82525050565b6000612785826131a1565b61278f81856131b7565b935061279f81856020860161337c565b6127a881613548565b840191505092915050565b60006127be826131ac565b6127c881856131c8565b93506127d881856020860161337c565b6127e181613548565b840191505092915050565b60006127f7826131ac565b61280181856131d9565b935061281181856020860161337c565b80840191505092915050565b6000815461282a816133af565b61283481866131d9565b9450600182166000811461284f576001811461286057612893565b60ff19831686528186019350612893565b6128698561318c565b60005b8381101561288b5781548189015260018201915060208101905061286c565b838801955050505b50505092915050565b60006128a96032836131c8565b91506128b482613559565b604082019050919050565b60006128cc6025836131c8565b91506128d7826135a8565b604082019050919050565b60006128ef601c836131c8565b91506128fa826135f7565b602082019050919050565b6000612912600a836131d9565b915061291d82613620565b600a82019050919050565b60006129356024836131c8565b915061294082613649565b604082019050919050565b60006129586019836131c8565b915061296382613698565b602082019050919050565b600061297b600b836131d9565b9150612986826136c1565b600b82019050919050565b600061299e602c836131c8565b91506129a9826136ea565b604082019050919050565b60006129c16038836131c8565b91506129cc82613739565b604082019050919050565b60006129e4602a836131c8565b91506129ef82613788565b604082019050919050565b6000612a076029836131c8565b9150612a12826137d7565b604082019050919050565b6000612a2a602e836131c8565b9150612a3582613826565b604082019050919050565b6000612a4d6002836131d9565b9150612a5882613875565b600282019050919050565b6000612a706020836131c8565b9150612a7b8261389e565b602082019050919050565b6000612a936031836131c8565b9150612a9e826138c7565b604082019050919050565b6000612ab6602c836131c8565b9150612ac182613916565b604082019050919050565b6000612ad9602f836131c8565b9150612ae482613965565b604082019050919050565b6000612afc600a836131d9565b9150612b07826139b4565b600a82019050919050565b6000612b1f6021836131c8565b9150612b2a826139dd565b604082019050919050565b6000612b426024836131c8565b9150612b4d82613a2c565b604082019050919050565b6000612b65600a836131d9565b9150612b7082613a7b565b600a82019050919050565b6000612b88601d836131d9565b9150612b9382613aa4565b601d82019050919050565b6000612bab6068836131d9565b9150612bb682613acd565b606882019050919050565b6000612bce6031836131c8565b9150612bd982613b68565b604082019050919050565b6000612bf16005836131d9565b9150612bfc82613bb7565b600582019050919050565b612c1081613363565b82525050565b6000612c2282846127ec565b915081905092915050565b6000612c3982856127ec565b9150612c4582846127ec565b91508190509392505050565b6000612c5d82866127ec565b9150612c6982856127ec565b9150612c7582846127ec565b9150819050949350505050565b6000612c8e828c61281d565b9150612c9a828b6127ec565b9150612ca6828a61281d565b9150612cb282896127ec565b9150612cbe828861281d565b9150612cca82876127ec565b9150612cd6828661281d565b9150612ce282856127ec565b9150612cee828461281d565b91508190509a9950505050505050505050565b6000612d0c82612905565b9150612d1882846127ec565b915081905092915050565b6000612d2e8261296e565b9150612d3a82846127ec565b915081905092915050565b6000612d5082612aef565b9150612d5c82856127ec565b9150612d6782612b9e565b9150612d7382846127ec565b9150612d7e82612a40565b91508190509392505050565b6000612d9582612b58565b9150612da182846127ec565b915081905092915050565b6000612db782612b7b565b9150612dc382846127ec565b915081905092915050565b6000612dd982612be4565b9150612de582846127ec565b915081905092915050565b6000602082019050612e05600083018461275c565b92915050565b6000608082019050612e20600083018761275c565b612e2d602083018661275c565b612e3a6040830185612c07565b8181036060830152612e4c818461277a565b905095945050505050565b6000604082019050612e6c600083018561275c565b612e796020830184612c07565b9392505050565b6000602082019050612e95600083018461276b565b92915050565b60006020820190508181036000830152612eb581846127b3565b905092915050565b60006060820190508181036000830152612ed781866127b3565b9050612ee66020830185612c07565b612ef3604083018461275c565b949350505050565b60006020820190508181036000830152612f148161289c565b9050919050565b60006020820190508181036000830152612f34816128bf565b9050919050565b60006020820190508181036000830152612f54816128e2565b9050919050565b60006020820190508181036000830152612f7481612928565b9050919050565b60006020820190508181036000830152612f948161294b565b9050919050565b60006020820190508181036000830152612fb481612991565b9050919050565b60006020820190508181036000830152612fd4816129b4565b9050919050565b60006020820190508181036000830152612ff4816129d7565b9050919050565b60006020820190508181036000830152613014816129fa565b9050919050565b6000602082019050818103600083015261303481612a1d565b9050919050565b6000602082019050818103600083015261305481612a63565b9050919050565b6000602082019050818103600083015261307481612a86565b9050919050565b6000602082019050818103600083015261309481612aa9565b9050919050565b600060208201905081810360008301526130b481612acc565b9050919050565b600060208201905081810360008301526130d481612b12565b9050919050565b600060208201905081810360008301526130f481612b35565b9050919050565b6000602082019050818103600083015261311481612bc1565b9050919050565b60006020820190506131306000830184612c07565b92915050565b6000613140613151565b905061314c82826133e1565b919050565b6000604051905090565b600067ffffffffffffffff82111561317657613175613519565b5b61317f82613548565b9050602081019050919050565b60008190508160005260206000209050919050565b600081519050919050565b600081519050919050565b600082825260208201905092915050565b600082825260208201905092915050565b600081905092915050565b60006131ef82613363565b91506131fa83613363565b9250827fffffffffffffffffffffffffffffffffffffffffffffffffffffffffffffffff0382111561322f5761322e61348c565b5b828201905092915050565b600061324582613363565b915061325083613363565b9250826132605761325f6134bb565b5b828204905092915050565b600061327682613363565b915061328183613363565b9250817fffffffffffffffffffffffffffffffffffffffffffffffffffffffffffffffff04831182151516156132ba576132b961348c565b5b828202905092915050565b60006132d082613363565b91506132db83613363565b9250828210156132ee576132ed61348c565b5b828203905092915050565b600061330482613343565b9050919050565b60008115159050919050565b60007fffffffff0000000000000000000000000000000000000000000000000000000082169050919050565b600073ffffffffffffffffffffffffffffffffffffffff82169050919050565b6000819050919050565b82818337600083830152505050565b60005b8381101561339a57808201518184015260208101905061337f565b838111156133a9576000848401525b50505050565b600060028204905060018216806133c757607f821691505b602082108114156133db576133da6134ea565b5b50919050565b6133ea82613548565b810181811067ffffffffffffffff8211171561340957613408613519565b5b80604052505050565b600061341d82613363565b91507fffffffffffffffffffffffffffffffffffffffffffffffffffffffffffffffff8214156134505761344f61348c565b5b600182019050919050565b600061346682613363565b915061347183613363565b925082613481576134806134bb565b5b828206905092915050565b7f4e487b7100000000000000000000000000000000000000000000000000000000600052601160045260246000fd5b7f4e487b7100000000000000000000000000000000000000000000000000000000600052601260045260246000fd5b7f4e487b7100000000000000000000000000000000000000000000000000000000600052602260045260246000fd5b7f4e487b7100000000000000000000000000000000000000000000000000000000600052604160045260246000fd5b6000601f19601f8301169050919050565b7f4552433732313a207472616e7366657220746f206e6f6e20455243373231526560008201527f63656976657220696d706c656d656e7465720000000000000000000000000000602082015250565b7f4552433732313a207472616e736665722066726f6d20696e636f72726563742060008201527f6f776e6572000000000000000000000000000000000000000000000000000000602082015250565b7f4552433732313a20746f6b656e20616c7265616479206d696e74656400000000600082015250565b7f54484952445f574f524400000000000000000000000000000000000000000000600082015250565b7f4552433732313a207472616e7366657220746f20746865207a65726f2061646460008201527f7265737300000000000000000000000000000000000000000000000000000000602082015250565b7f4552433732313a20617070726f766520746f2063616c6c657200000000000000600082015250565b7f5345434f4e445f574f5244000000000000000000000000000000000000000000600082015250565b7f4552433732313a206f70657261746f7220717565727920666f72206e6f6e657860008201527f697374656e7420746f6b656e0000000000000000000000000000000000000000602082015250565b7f4552433732313a20617070726f76652063616c6c6572206973206e6f74206f7760008201527f6e6572206e6f7220617070726f76656420666f7220616c6c0000000000000000602082015250565b7f4552433732313a2062616c616e636520717565727920666f7220746865207a6560008201527f726f206164647265737300000000000000000000000000000000000000000000602082015250565b7f4552433732313a206f776e657220717565727920666f72206e6f6e657869737460008201527f656e7420746f6b656e0000000000000000000000000000000000000000000000602082015250565b7f45524337323155524953746f726167653a2055524920736574206f66206e6f6e60008201527f6578697374656e7420746f6b656e000000000000000000000000000000000000602082015250565b7f227d000000000000000000000000000000000000000000000000000000000000600082015250565b7f4552433732313a206d696e7420746f20746865207a65726f2061646472657373600082015250565b7f45524337323155524953746f726167653a2055524920717565727920666f722060008201527f6e6f6e6578697374656e7420746f6b656e000000000000000000000000000000602082015250565b7f4552433732313a20617070726f76656420717565727920666f72206e6f6e657860008201527f697374656e7420746f6b656e0000000000000000000000000000000000000000602082015250565b7f4552433732314d657461646174613a2055524920717565727920666f72206e6f60008201527f6e6578697374656e7420746f6b656e0000000000000000000000000000000000602082015250565b7f7b226e616d65223a202200000000000000000000000000000000000000000000600082015250565b7f4552433732313a20617070726f76616c20746f2063757272656e74206f776e6560008201527f7200000000000000000000000000000000000000000000000000000000000000602082015250565b7f4d6178206e756d626572206f66204e4654732068617665206265656e206d696e60008201527f7465642e00000000000000000000000000000000000000000000000000000000602082015250565b7f46495253545f574f524400000000000000000000000000000000000000000000600082015250565b7f646174613a6170706c69636174696f6e2f6a736f6e3b6261736536342c000000600082015250565b7f222c20226465736372697074696f6e223a20224120686967686c79206163636c60008201527f61696d656420636f6c6c656374696f6e206f662073746f69632074726169747360208201527f2e222c2022696d616765223a2022646174613a696d6167652f7376672b786d6c60408201527f3b6261736536342c000000000000000000000000000000000000000000000000606082015250565b7f4552433732313a207472616e736665722063616c6c6572206973206e6f74206f60008201527f776e6572206e6f7220617070726f766564000000000000000000000000000000602082015250565b7f434f4c4f52000000000000000000000000000000000000000000000000000000600082015250565b613be9816132f9565b8114613bf457600080fd5b50565b613c008161330b565b8114613c0b57600080fd5b50565b613c1781613317565b8114613c2257600080fd5b50565b613c2e81613363565b8114613c3957600080fd5b5056fe416e204e465420772f20494420257320686173206265656e206d696e74656420746f2025734142434445464748494a4b4c4d4e4f505152535455565758595a6162636465666768696a6b6c6d6e6f707172737475767778797a303132333435363738392b2fa2646970667358221220900cbc79624e2daf03945fb3f482f28b8d17c911fed1b67c16eda4960a51f62164736f6c63430008040033272f3e3c7465787420793d273530252720636c6173733d27626173652720746578742d616e63686f723d276d6964646c65273e3c747370616e20783d27353025273e3c73766720786d6c6e733d27687474703a2f2f7777772e77332e6f72672f323030302f73766727207072657365727665417370656374526174696f3d27784d696e594d696e206d656574272076696577426f783d273020302033353020333530273e3c7374796c653e2e62617365207b2066696c6c3a2077686974653b20666f6e742d66616d696c793a2048656c7665746963612c2073616e732d73657269663b20666f6e742d73697a653a20343570783b20666f6e742d7765696768743a2031303030207d3c2f7374796c653e3c726563742077696474683d273130302527206865696768743d2731303025272066696c6c3d27",
  "linkReferences": {},
  "deployedLinkReferences": {}
}