{
    "_format": "hh-sol-artifact-1",
    "contractName": "MyEpicNFT",
    "sourceName": "contracts/MyEpicNFT.sol",
    "abi": [
        {
            "inputs": [],
            "stateMutability": "nonpayable",
            "type": "constructor"
        },
        {
            "anonymous": false,
            "inputs": [
                {
                    "indexed": true,
                    "internalType": "address",
                    "name": "owner",
                    "type": "address"
                },
                {
                    "indexed": true,
                    "internalType": "address",
                    "name": "approved",
                    "type": "address"
                },
                {
                    "indexed": true,
                    "internalType": "uint256",
                    "name": "tokenId",
                    "type": "uint256"
                }
            ],
            "name": "Approval",
            "type": "event"
        },
        {
            "anonymous": false,
            "inputs": [
                {
                    "indexed": true,
                    "internalType": "address",
                    "name": "owner",
                    "type": "address"
                },
                {
                    "indexed": true,
                    "internalType": "address",
                    "name": "operator",
                    "type": "address"
                },
                {
                    "indexed": false,
                    "internalType": "bool",
                    "name": "approved",
                    "type": "bool"
                }
            ],
            "name": "ApprovalForAll",
            "type": "event"
        },
        {
            "anonymous": false,
            "inputs": [
                {
                    "indexed": false,
                    "internalType": "address",
                    "name": "sender",
                    "type": "address"
                },
                {
                    "indexed": false,
                    "internalType": "uint256",
                    "name": "tokenId",
                    "type": "uint256"
                }
            ],
            "name": "NewEpicNFTMinted",
            "type": "event"
        },
        {
            "anonymous": false,
            "inputs": [
                {
                    "indexed": true,
                    "internalType": "address",
                    "name": "from",
                    "type": "address"
                },
                {
                    "indexed": true,
                    "internalType": "address",
                    "name": "to",
                    "type": "address"
                },
                {
                    "indexed": true,
                    "internalType": "uint256",
                    "name": "tokenId",
                    "type": "uint256"
                }
            ],
            "name": "Transfer",
            "type": "event"
        },
        {
            "inputs": [
                {
                    "internalType": "address",
                    "name": "to",
                    "type": "address"
                },
                {
                    "internalType": "uint256",
                    "name": "tokenId",
                    "type": "uint256"
                }
            ],
            "name": "approve",
            "outputs": [],
            "stateMutability": "nonpayable",
            "type": "function"
        },
        {
            "inputs": [
                {
                    "internalType": "address",
                    "name": "owner",
                    "type": "address"
                }
            ],
            "name": "balanceOf",
            "outputs": [
                {
                    "internalType": "uint256",
                    "name": "",
                    "type": "uint256"
                }
            ],
            "stateMutability": "view",
            "type": "function"
        },
        {
            "inputs": [
                {
                    "internalType": "uint256",
                    "name": "tokenId",
                    "type": "uint256"
                }
            ],
            "name": "getApproved",
            "outputs": [
                {
                    "internalType": "address",
                    "name": "",
                    "type": "address"
                }
            ],
            "stateMutability": "view",
            "type": "function"
        },
        {
            "inputs": [],
            "name": "getTotalNFTsMintedSoFar",
            "outputs": [
                {
                    "internalType": "uint256",
                    "name": "",
                    "type": "uint256"
                }
            ],
            "stateMutability": "view",
            "type": "function"
        },
        {
            "inputs": [
                {
                    "internalType": "address",
                    "name": "owner",
                    "type": "address"
                },
                {
                    "internalType": "address",
                    "name": "operator",
                    "type": "address"
                }
            ],
            "name": "isApprovedForAll",
            "outputs": [
                {
                    "internalType": "bool",
                    "name": "",
                    "type": "bool"
                }
            ],
            "stateMutability": "view",
            "type": "function"
        },
        {
            "inputs": [],
            "name": "makeAnEpicNFT",
            "outputs": [],
            "stateMutability": "nonpayable",
            "type": "function"
        },
        {
            "inputs": [],
            "name": "name",
            "outputs": [
                {
                    "internalType": "string",
                    "name": "",
                    "type": "string"
                }
            ],
            "stateMutability": "view",
            "type": "function"
        },
        {
            "inputs": [
                {
                    "internalType": "uint256",
                    "name": "tokenId",
                    "type": "uint256"
                }
            ],
            "name": "ownerOf",
            "outputs": [
                {
                    "internalType": "address",
                    "name": "",
                    "type": "address"
                }
            ],
            "stateMutability": "view",
            "type": "function"
        },
        {
            "inputs": [
                {
                    "internalType": "uint256",
                    "name": "tokenId",
                    "type": "uint256"
                }
            ],
            "name": "pickRandomColor",
            "outputs": [
                {
                    "internalType": "string",
                    "name": "",
                    "type": "string"
                }
            ],
            "stateMutability": "view",
            "type": "function"
        },
        {
            "inputs": [
                {
                    "internalType": "uint256",
                    "name": "tokenId",
                    "type": "uint256"
                }
            ],
            "name": "pickRandomFirstWord",
            "outputs": [
                {
                    "internalType": "string",
                    "name": "",
                    "type": "string"
                }
            ],
            "stateMutability": "view",
            "type": "function"
        },
        {
            "inputs": [
                {
                    "internalType": "uint256",
                    "name": "tokenId",
                    "type": "uint256"
                }
            ],
            "name": "pickRandomSecondWord",
            "outputs": [
                {
                    "internalType": "string",
                    "name": "",
                    "type": "string"
                }
            ],
            "stateMutability": "view",
            "type": "function"
        },
        {
            "inputs": [
                {
                    "internalType": "uint256",
                    "name": "tokenId",
                    "type": "uint256"
                }
            ],
            "name": "pickRandomThirdWord",
            "outputs": [
                {
                    "internalType": "string",
                    "name": "",
                    "type": "string"
                }
            ],
            "stateMutability": "view",
            "type": "function"
        },
        {
            "inputs": [
                {
                    "internalType": "address",
                    "name": "from",
                    "type": "address"
                },
                {
                    "internalType": "address",
                    "name": "to",
                    "type": "address"
                },
                {
                    "internalType": "uint256",
                    "name": "tokenId",
                    "type": "uint256"
                }
            ],
            "name": "safeTransferFrom",
            "outputs": [],
            "stateMutability": "nonpayable",
            "type": "function"
        },
        {
            "inputs": [
                {
                    "internalType": "address",
                    "name": "from",
                    "type": "address"
                },
                {
                    "internalType": "address",
                    "name": "to",
                    "type": "address"
                },
                {
                    "internalType": "uint256",
                    "name": "tokenId",
                    "type": "uint256"
                },
                {
                    "internalType": "bytes",
                    "name": "_data",
                    "type": "bytes"
                }
            ],
            "name": "safeTransferFrom",
            "outputs": [],
            "stateMutability": "nonpayable",
            "type": "function"
        },
        {
            "inputs": [
                {
                    "internalType": "address",
                    "name": "operator",
                    "type": "address"
                },
                {
                    "internalType": "bool",
                    "name": "approved",
                    "type": "bool"
                }
            ],
            "name": "setApprovalForAll",
            "outputs": [],
            "stateMutability": "nonpayable",
            "type": "function"
        },
        {
            "inputs": [
                {
                    "internalType": "bytes4",
                    "name": "interfaceId",
                    "type": "bytes4"
                }
            ],
            "name": "supportsInterface",
            "outputs": [
                {
                    "internalType": "bool",
                    "name": "",
                    "type": "bool"
                }
            ],
            "stateMutability": "view",
            "type": "function"
        },
        {
            "inputs": [],
            "name": "symbol",
            "outputs": [
                {
                    "internalType": "string",
                    "name": "",
                    "type": "string"
                }
            ],
            "stateMutability": "view",
            "type": "function"
        },
        {
            "inputs": [
                {
                    "internalType": "uint256",
                    "name": "tokenId",
                    "type": "uint256"
                }
            ],
            "name": "tokenURI",
            "outputs": [
                {
                    "internalType": "string",
                    "name": "",
                    "type": "string"
                }
            ],
            "stateMutability": "view",
            "type": "function"
        },
        {
            "inputs": [
                {
                    "internalType": "address",
                    "name": "from",
                    "type": "address"
                },
                {
                    "internalType": "address",
                    "name": "to",
                    "type": "address"
                },
                {
                    "internalType": "uint256",
                    "name": "tokenId",
                    "type": "uint256"
                }
            ],
            "name": "transferFrom",
            "outputs": [],
            "stateMutability": "nonpayable",
            "type": "function"
        }
    ],
    "bytecode": "0x608060405260405180610100016040528060d38152602001620046d860d391396008908051906020019062000036929190620006cf565b50604051806080016040528060568152602001620047ab605691396009908051906020019062000068929190620006cf565b506040518060a001604052806040518060400160405280600581526020017f427261766500000000000000000000000000000000000000000000000000000081525081526020016040518060400160405280600481526020017f4b696e640000000000000000000000000000000000000000000000000000000081525081526020016040518060400160405280600481526020017f466169720000000000000000000000000000000000000000000000000000000081525081526020016040518060400160405280600681526020017f4d6f64657374000000000000000000000000000000000000000000000000000081525081526020016040518060400160405280600481526020017f5769736500000000000000000000000000000000000000000000000000000000815250815250600a906005620001ab92919062000760565b5060405180608001604052806040518060400160405280600a81526020017f456d70617468657469630000000000000000000000000000000000000000000081525081526020016040518060400160405280600981526020017f526573696c69656e74000000000000000000000000000000000000000000000081525081526020016040518060400160405280600681526020017f536872657764000000000000000000000000000000000000000000000000000081525081526020016040518060400160405280600681526020017f48756d626c650000000000000000000000000000000000000000000000000000815250815250600b906004620002b3929190620007c7565b5060405180608001604052806040518060400160405280600581526020017f53746f696300000000000000000000000000000000000000000000000000000081525081526020016040518060400160405280600781526020017f53657276616e740000000000000000000000000000000000000000000000000081525081526020016040518060400160405280600781526020017f53747564656e740000000000000000000000000000000000000000000000000081525081526020016040518060400160405280600681526020017f4c65616465720000000000000000000000000000000000000000000000000000815250815250600c906004620003bb929190620007c7565b506040518060a001604052806040518060400160405280600781526020017f233232353737410000000000000000000000000000000000000000000000000081525081526020016040518060400160405280600781526020017f233338413341350000000000000000000000000000000000000000000000000081525081526020016040518060400160405280600781526020017f233537434339390000000000000000000000000000000000000000000000000081525081526020016040518060400160405280600781526020017f233830454439390000000000000000000000000000000000000000000000000081525081526020016040518060400160405280600781526020017f2343374639434300000000000000000000000000000000000000000000000000815250815250600d906005620004fe92919062000760565b506037600e553480156200051157600080fd5b506040518060400160405280600881526020017f53746f69634e46540000000000000000000000000000000000000000000000008152506040518060400160405280600681526020017f5351554152450000000000000000000000000000000000000000000000000000815250816000908051906020019062000596929190620006cf565b508060019080519060200190620005af929190620006cf565b505050620005fd6040518060400160405280601e81526020017f54686973206973206d79204e465420636f6e74726163742e20576f61682100008152506200060360201b620012a81760201c565b620009e8565b620006a3816040516024016200061a9190620008fc565b6040516020818303038152906040527f41304fac000000000000000000000000000000000000000000000000000000007bffffffffffffffffffffffffffffffffffffffffffffffffffffffff19166020820180517bffffffffffffffffffffffffffffffffffffffffffffffffffffffff8381831617835250505050620006a660201b60201c565b50565b60008151905060006a636f6e736f6c652e6c6f679050602083016000808483855afa5050505050565b828054620006dd9062000972565b90600052602060002090601f0160209004810192826200070157600085556200074d565b82601f106200071c57805160ff19168380011785556200074d565b828001600101855582156200074d579182015b828111156200074c5782518255916020019190600101906200072f565b5b5090506200075c91906200082e565b5090565b828054828255906000526020600020908101928215620007b4579160200282015b82811115620007b3578251829080519060200190620007a2929190620006cf565b509160200191906001019062000781565b5b509050620007c391906200084d565b5090565b8280548282559060005260206000209081019282156200081b579160200282015b828111156200081a57825182908051906020019062000809929190620006cf565b5091602001919060010190620007e8565b5b5090506200082a91906200084d565b5090565b5b80821115620008495760008160009055506001016200082f565b5090565b5b8082111562000871576000818162000867919062000875565b506001016200084e565b5090565b508054620008839062000972565b6000825580601f10620008975750620008b8565b601f016020900490600052602060002090810190620008b791906200082e565b5b50565b6000620008c88262000920565b620008d481856200092b565b9350620008e68185602086016200093c565b620008f181620009d7565b840191505092915050565b60006020820190508181036000830152620009188184620008bb565b905092915050565b600081519050919050565b600082825260208201905092915050565b60005b838110156200095c5780820151818401526020810190506200093f565b838111156200096c576000848401525b50505050565b600060028204905060018216806200098b57607f821691505b60208210811415620009a257620009a1620009a8565b5b50919050565b7f4e487b7100000000000000000000000000000000000000000000000000000000600052602260045260246000fd5b6000601f19601f8301169050919050565b613ce080620009f86000396000f3fe608060405234801561001057600080fd5b50600436106101215760003560e01c80636352211e116100ad578063b88d4fde11610071578063b88d4fde14610340578063c575757a1461035c578063c87b56dd1461038c578063de9d132f146103bc578063e985e9c5146103c657610121565b80636352211e1461027657806370a08231146102a657806395d89b41146102d6578063a22cb465146102f4578063b187301f1461031057610121565b8063095ea7b3116100f4578063095ea7b3146101c257806323b872dd146101de5780632de38d68146101fa57806342842e0e1461022a578063514dc8c61461024657610121565b806301ffc9a714610126578063060475901461015657806306fdde0314610174578063081812fc14610192575b600080fd5b610140600480360381019061013b91906126d4565b6103f6565b60405161014d9190612e60565b60405180910390f35b61015e6104d8565b60405161016b91906130fb565b60405180910390f35b61017c6104e9565b6040516101899190612e7b565b60405180910390f35b6101ac60048036038101906101a79190612726565b61057b565b6040516101b99190612dd0565b60405180910390f35b6101dc60048036038101906101d79190612698565b610600565b005b6101f860048036038101906101f39190612592565b610718565b005b610214600480360381019061020f9190612726565b610778565b6040516102219190612e7b565b60405180910390f35b610244600480360381019061023f9190612592565b610896565b005b610260600480360381019061025b9190612726565b6108b6565b60405161026d9190612e7b565b60405180910390f35b610290600480360381019061028b9190612726565b6109d4565b60405161029d9190612dd0565b60405180910390f35b6102c060048036038101906102bb919061252d565b610a86565b6040516102cd91906130fb565b60405180910390f35b6102de610b3e565b6040516102eb9190612e7b565b60405180910390f35b61030e6004803603810190610309919061265c565b610bd0565b005b61032a60048036038101906103259190612726565b610be6565b6040516103379190612e7b565b60405180910390f35b61035a600480360381019061035591906125e1565b610d04565b005b61037660048036038101906103719190612726565b610d66565b6040516103839190612e7b565b60405180910390f35b6103a660048036038101906103a19190612726565b610e84565b6040516103b39190612e7b565b60405180910390f35b6103c4610fd6565b005b6103e060048036038101906103db9190612556565b611214565b6040516103ed9190612e60565b60405180910390f35b60007f80ac58cd000000000000000000000000000000000000000000000000000000007bffffffffffffffffffffffffffffffffffffffffffffffffffffffff1916827bffffffffffffffffffffffffffffffffffffffffffffffffffffffff191614806104c157507f5b5e139f000000000000000000000000000000000000000000000000000000007bffffffffffffffffffffffffffffffffffffffffffffffffffffffff1916827bffffffffffffffffffffffffffffffffffffffffffffffffffffffff1916145b806104d157506104d082611341565b5b9050919050565b60006104e460076113ab565b905090565b6060600080546104f89061338f565b80601f01602080910402602001604051908101604052809291908181526020018280546105249061338f565b80156105715780601f1061054657610100808354040283529160200191610571565b820191906000526020600020905b81548152906001019060200180831161055457829003601f168201915b5050505050905090565b6000610586826113b9565b6105c5576040517f08c379a00000000000000000000000000000000000000000000000000000000081526004016105bc9061305b565b60405180910390fd5b6004600083815260200190815260200160002060009054906101000a900473ffffffffffffffffffffffffffffffffffffffff169050919050565b600061060b826109d4565b90508073ffffffffffffffffffffffffffffffffffffffff168373ffffffffffffffffffffffffffffffffffffffff16141561067c576040517f08c379a00000000000000000000000000000000000000000000000000000000081526004016106739061309b565b60405180910390fd5b8073ffffffffffffffffffffffffffffffffffffffff1661069b611425565b73ffffffffffffffffffffffffffffffffffffffff1614806106ca57506106c9816106c4611425565b611214565b5b610709576040517f08c379a000000000000000000000000000000000000000000000000000000000815260040161070090612f9b565b60405180910390fd5b610713838361142d565b505050565b610729610723611425565b826114e6565b610768576040517f08c379a000000000000000000000000000000000000000000000000000000000815260040161075f906130db565b60405180910390fd5b6107738383836115c4565b505050565b606060006107ac6107888461182b565b6040516020016107989190612d6a565b6040516020818303038152906040526119d8565b9050600a80549050816107bf919061343b565b9050600a81815481106107fb577f4e487b7100000000000000000000000000000000000000000000000000000000600052603260045260246000fd5b9060005260206000200180546108109061338f565b80601f016020809104026020016040519081016040528092919081815260200182805461083c9061338f565b80156108895780601f1061085e57610100808354040283529160200191610889565b820191906000526020600020905b81548152906001019060200180831161086c57829003601f168201915b5050505050915050919050565b6108b183838360405180602001604052806000815250610d04565b505050565b606060006108ea6108c68461182b565b6040516020016108d69190612dae565b6040516020818303038152906040526119d8565b9050600d80549050816108fd919061343b565b9050600d8181548110610939577f4e487b7100000000000000000000000000000000000000000000000000000000600052603260045260246000fd5b90600052602060002001805461094e9061338f565b80601f016020809104026020016040519081016040528092919081815260200182805461097a9061338f565b80156109c75780601f1061099c576101008083540402835291602001916109c7565b820191906000526020600020905b8154815290600101906020018083116109aa57829003601f168201915b5050505050915050919050565b6000806002600084815260200190815260200160002060009054906101000a900473ffffffffffffffffffffffffffffffffffffffff169050600073ffffffffffffffffffffffffffffffffffffffff168173ffffffffffffffffffffffffffffffffffffffff161415610a7d576040517f08c379a0000000000000000000000000000000000000000000000000000000008152600401610a7490612fdb565b60405180910390fd5b80915050919050565b60008073ffffffffffffffffffffffffffffffffffffffff168273ffffffffffffffffffffffffffffffffffffffff161415610af7576040517f08c379a0000000000000000000000000000000000000000000000000000000008152600401610aee90612fbb565b60405180910390fd5b600360008373ffffffffffffffffffffffffffffffffffffffff1673ffffffffffffffffffffffffffffffffffffffff168152602001908152602001600020549050919050565b606060018054610b4d9061338f565b80601f0160208091040260200160405190810160405280929190818152602001828054610b799061338f565b8015610bc65780601f10610b9b57610100808354040283529160200191610bc6565b820191906000526020600020905b815481529060010190602001808311610ba957829003601f168201915b5050505050905090565b610be2610bdb611425565b8383611a0b565b5050565b60606000610c1a610bf68461182b565b604051602001610c069190612d03565b6040516020818303038152906040526119d8565b9050600b8054905081610c2d919061343b565b9050600b8181548110610c69577f4e487b7100000000000000000000000000000000000000000000000000000000600052603260045260246000fd5b906000526020600020018054610c7e9061338f565b80601f0160208091040260200160405190810160405280929190818152602001828054610caa9061338f565b8015610cf75780601f10610ccc57610100808354040283529160200191610cf7565b820191906000526020600020905b815481529060010190602001808311610cda57829003601f168201915b5050505050915050919050565b610d15610d0f611425565b836114e6565b610d54576040517f08c379a0000000000000000000000000000000000000000000000000000000008152600401610d4b906130db565b60405180910390fd5b610d6084848484611b78565b50505050565b60606000610d9a610d768461182b565b604051602001610d869190612ce1565b6040516020818303038152906040526119d8565b9050600c8054905081610dad919061343b565b9050600c8181548110610de9577f4e487b7100000000000000000000000000000000000000000000000000000000600052603260045260246000fd5b906000526020600020018054610dfe9061338f565b80601f0160208091040260200160405190810160405280929190818152602001828054610e2a9061338f565b8015610e775780601f10610e4c57610100808354040283529160200191610e77565b820191906000526020600020905b815481529060010190602001808311610e5a57829003601f168201915b5050505050915050919050565b6060610e8f826113b9565b610ece576040517f08c379a0000000000000000000000000000000000000000000000000000000008152600401610ec59061303b565b60405180910390fd5b6000600660008481526020019081526020016000208054610eee9061338f565b80601f0160208091040260200160405190810160405280929190818152602001828054610f1a9061338f565b8015610f675780601f10610f3c57610100808354040283529160200191610f67565b820191906000526020600020905b815481529060010190602001808311610f4a57829003601f168201915b505050505090506000610f78611bd4565b9050600081511415610f8e578192505050610fd1565b600082511115610fc3578082604051602001610fab929190612c43565b60405160208183030381529060405292505050610fd1565b610fcc84611beb565b925050505b919050565b6000610fe260076113ab565b90506000610fef82610778565b90506000610ffc83610be6565b9050600061100984610d66565b9050600083838360405160200161102293929190612c67565b6040516020818303038152906040529050600061103e866108b6565b9050600060088260098560405160200161105b9493929190612c98565b604051602081830303815290604052905060006110a08461107b84611c92565b60405160200161108c929190612d25565b604051602081830303815290604052611c92565b90506000816040516020016110b59190612d8c565b60405160208183030381529060405290506111046040518060400160405280601581526020017f0a2d2d2d2d2d2d2d2d2d2d2d2d2d2d2d2d2d2d2d2d00000000000000000000008152506112a8565b61110d816112a8565b61114b6040518060400160405280601581526020017f2d2d2d2d2d2d2d2d2d2d2d2d2d2d2d2d2d2d2d2d0a00000000000000000000008152506112a8565b600e54891061118f576040517f08c379a0000000000000000000000000000000000000000000000000000000008152600401611186906130bb565b60405180910390fd5b611199338a611e50565b6111a38982611e6e565b6111ad6007611ee2565b6111d0604051806060016040528060258152602001613c46602591398a33611ef8565b7febb98688741ffa4c7589bf325de30cf7becb63de567842e1ccdb6cb949fdc82c338a604051611201929190612e37565b60405180910390a1505050505050505050565b6000600560008473ffffffffffffffffffffffffffffffffffffffff1673ffffffffffffffffffffffffffffffffffffffff16815260200190815260200160002060008373ffffffffffffffffffffffffffffffffffffffff1673ffffffffffffffffffffffffffffffffffffffff16815260200190815260200160002060009054906101000a900460ff16905092915050565b61133e816040516024016112bc9190612e7b565b6040516020818303038152906040527f41304fac000000000000000000000000000000000000000000000000000000007bffffffffffffffffffffffffffffffffffffffffffffffffffffffff19166020820180517bffffffffffffffffffffffffffffffffffffffffffffffffffffffff8381831617835250505050611f97565b50565b60007f01ffc9a7000000000000000000000000000000000000000000000000000000007bffffffffffffffffffffffffffffffffffffffffffffffffffffffff1916827bffffffffffffffffffffffffffffffffffffffffffffffffffffffff1916149050919050565b600081600001549050919050565b60008073ffffffffffffffffffffffffffffffffffffffff166002600084815260200190815260200160002060009054906101000a900473ffffffffffffffffffffffffffffffffffffffff1673ffffffffffffffffffffffffffffffffffffffff1614159050919050565b600033905090565b816004600083815260200190815260200160002060006101000a81548173ffffffffffffffffffffffffffffffffffffffff021916908373ffffffffffffffffffffffffffffffffffffffff160217905550808273ffffffffffffffffffffffffffffffffffffffff166114a0836109d4565b73ffffffffffffffffffffffffffffffffffffffff167f8c5be1e5ebec7d5bd14f71427d1e84f3dd0314c0f7b2291e5b200ac8c7c3b92560405160405180910390a45050565b60006114f1826113b9565b611530576040517f08c379a000000000000000000000000000000000000000000000000000000000815260040161152790612f7b565b60405180910390fd5b600061153b836109d4565b90508073ffffffffffffffffffffffffffffffffffffffff168473ffffffffffffffffffffffffffffffffffffffff1614806115aa57508373ffffffffffffffffffffffffffffffffffffffff166115928461057b565b73ffffffffffffffffffffffffffffffffffffffff16145b806115bb57506115ba8185611214565b5b91505092915050565b8273ffffffffffffffffffffffffffffffffffffffff166115e4826109d4565b73ffffffffffffffffffffffffffffffffffffffff161461163a576040517f08c379a000000000000000000000000000000000000000000000000000000000815260040161163190612efb565b60405180910390fd5b600073ffffffffffffffffffffffffffffffffffffffff168273ffffffffffffffffffffffffffffffffffffffff1614156116aa576040517f08c379a00000000000000000000000000000000000000000000000000000000081526004016116a190612f3b565b60405180910390fd5b6116b5838383611fc0565b6116c060008261142d565b6001600360008573ffffffffffffffffffffffffffffffffffffffff1673ffffffffffffffffffffffffffffffffffffffff168152602001908152602001600020600082825461171091906132a5565b925050819055506001600360008473ffffffffffffffffffffffffffffffffffffffff1673ffffffffffffffffffffffffffffffffffffffff168152602001908152602001600020600082825461176791906131c4565b92505081905550816002600083815260200190815260200160002060006101000a81548173ffffffffffffffffffffffffffffffffffffffff021916908373ffffffffffffffffffffffffffffffffffffffff160217905550808273ffffffffffffffffffffffffffffffffffffffff168473ffffffffffffffffffffffffffffffffffffffff167fddf252ad1be2c89b69c2b068fc378daa952ba7f163c4a11628f55a4df523b3ef60405160405180910390a4611826838383611fc5565b505050565b60606000821415611873576040518060400160405280600181526020017f300000000000000000000000000000000000000000000000000000000000000081525090506119d3565b600082905060005b600082146118a557808061188e906133f2565b915050600a8261189e919061321a565b915061187b565b60008167ffffffffffffffff8111156118e7577f4e487b7100000000000000000000000000000000000000000000000000000000600052604160045260246000fd5b6040519080825280601f01601f1916602001820160405280156119195781602001600182028036833780820191505090505b5090505b600085146119cc5760018261193291906132a5565b9150600a85611941919061343b565b603061194d91906131c4565b60f81b818381518110611989577f4e487b7100000000000000000000000000000000000000000000000000000000600052603260045260246000fd5b60200101907effffffffffffffffffffffffffffffffffffffffffffffffffffffffffffff1916908160001a905350600a856119c5919061321a565b945061191d565b8093505050505b919050565b6000816040516020016119eb9190612c2c565b6040516020818303038152906040528051906020012060001c9050919050565b8173ffffffffffffffffffffffffffffffffffffffff168373ffffffffffffffffffffffffffffffffffffffff161415611a7a576040517f08c379a0000000000000000000000000000000000000000000000000000000008152600401611a7190612f5b565b60405180910390fd5b80600560008573ffffffffffffffffffffffffffffffffffffffff1673ffffffffffffffffffffffffffffffffffffffff16815260200190815260200160002060008473ffffffffffffffffffffffffffffffffffffffff1673ffffffffffffffffffffffffffffffffffffffff16815260200190815260200160002060006101000a81548160ff0219169083151502179055508173ffffffffffffffffffffffffffffffffffffffff168373ffffffffffffffffffffffffffffffffffffffff167f17307eab39ab6107e8899845ad3d59bd9653f200f220920489ca2b5937696c3183604051611b6b9190612e60565b60405180910390a3505050565b611b838484846115c4565b611b8f84848484611fca565b611bce576040517f08c379a0000000000000000000000000000000000000000000000000000000008152600401611bc590612edb565b60405180910390fd5b50505050565b606060405180602001604052806000815250905090565b6060611bf6826113b9565b611c35576040517f08c379a0000000000000000000000000000000000000000000000000000000008152600401611c2c9061307b565b60405180910390fd5b6000611c3f611bd4565b90506000815111611c5f5760405180602001604052806000815250611c8a565b80611c698461182b565b604051602001611c7a929190612c43565b6040516020818303038152906040525b915050919050565b60606000825190506000811415611cbb5760405180602001604052806000815250915050611e4b565b60006003600283611ccc91906131c4565b611cd6919061321a565b6004611ce2919061324b565b90506000602082611cf391906131c4565b67ffffffffffffffff811115611d32577f4e487b7100000000000000000000000000000000000000000000000000000000600052604160045260246000fd5b6040519080825280601f01601f191660200182016040528015611d645781602001600182028036833780820191505090505b5090506000604051806060016040528060408152602001613c6b604091399050600181016020830160005b86811015611e085760038101905062ffffff818a015116603f8160121c168401518060081b905060ff603f83600c1c1686015116810190508060081b905060ff603f8360061c1686015116810190508060081b905060ff603f831686015116810190508060e01b90508084526004840193505050611d8f565b506003860660018114611e225760028114611e3257611e3d565b613d3d60f01b6002830352611e3d565b603d60f81b60018303525b508484525050819450505050505b919050565b611e6a828260405180602001604052806000815250612161565b5050565b611e77826113b9565b611eb6576040517f08c379a0000000000000000000000000000000000000000000000000000000008152600401611ead90612ffb565b60405180910390fd5b80600660008481526020019081526020016000209080519060200190611edd9291906123b9565b505050565b6001816000016000828254019250508190555050565b611f92838383604051602401611f1093929190612e9d565b6040516020818303038152906040527fe3849f79000000000000000000000000000000000000000000000000000000007bffffffffffffffffffffffffffffffffffffffffffffffffffffffff19166020820180517bffffffffffffffffffffffffffffffffffffffffffffffffffffffff8381831617835250505050611f97565b505050565b60008151905060006a636f6e736f6c652e6c6f679050602083016000808483855afa5050505050565b505050565b505050565b6000611feb8473ffffffffffffffffffffffffffffffffffffffff166121bc565b15612154578373ffffffffffffffffffffffffffffffffffffffff1663150b7a02612014611425565b8786866040518563ffffffff1660e01b81526004016120369493929190612deb565b602060405180830381600087803b15801561205057600080fd5b505af192505050801561208157506040513d601f19601f8201168201806040525081019061207e91906126fd565b60015b612104573d80600081146120b1576040519150601f19603f3d011682016040523d82523d6000602084013e6120b6565b606091505b506000815114156120fc576040517f08c379a00000000000000000000000000000000000000000000000000000000081526004016120f390612edb565b60405180910390fd5b805181602001fd5b63150b7a0260e01b7bffffffffffffffffffffffffffffffffffffffffffffffffffffffff1916817bffffffffffffffffffffffffffffffffffffffffffffffffffffffff191614915050612159565b600190505b949350505050565b61216b83836121df565b6121786000848484611fca565b6121b7576040517f08c379a00000000000000000000000000000000000000000000000000000000081526004016121ae90612edb565b60405180910390fd5b505050565b6000808273ffffffffffffffffffffffffffffffffffffffff163b119050919050565b600073ffffffffffffffffffffffffffffffffffffffff168273ffffffffffffffffffffffffffffffffffffffff16141561224f576040517f08c379a00000000000000000000000000000000000000000000000000000000081526004016122469061301b565b60405180910390fd5b612258816113b9565b15612298576040517f08c379a000000000000000000000000000000000000000000000000000000000815260040161228f90612f1b565b60405180910390fd5b6122a460008383611fc0565b6001600360008473ffffffffffffffffffffffffffffffffffffffff1673ffffffffffffffffffffffffffffffffffffffff16815260200190815260200160002060008282546122f491906131c4565b92505081905550816002600083815260200190815260200160002060006101000a81548173ffffffffffffffffffffffffffffffffffffffff021916908373ffffffffffffffffffffffffffffffffffffffff160217905550808273ffffffffffffffffffffffffffffffffffffffff16600073ffffffffffffffffffffffffffffffffffffffff167fddf252ad1be2c89b69c2b068fc378daa952ba7f163c4a11628f55a4df523b3ef60405160405180910390a46123b560008383611fc5565b5050565b8280546123c59061338f565b90600052602060002090601f0160209004810192826123e7576000855561242e565b82601f1061240057805160ff191683800117855561242e565b8280016001018555821561242e579182015b8281111561242d578251825591602001919060010190612412565b5b50905061243b919061243f565b5090565b5b80821115612458576000816000905550600101612440565b5090565b600061246f61246a8461313b565b613116565b90508281526020810184848401111561248757600080fd5b61249284828561334d565b509392505050565b6000813590506124a981613be9565b92915050565b6000813590506124be81613c00565b92915050565b6000813590506124d381613c17565b92915050565b6000815190506124e881613c17565b92915050565b600082601f8301126124ff57600080fd5b813561250f84826020860161245c565b91505092915050565b60008135905061252781613c2e565b92915050565b60006020828403121561253f57600080fd5b600061254d8482850161249a565b91505092915050565b6000806040838503121561256957600080fd5b60006125778582860161249a565b92505060206125888582860161249a565b9150509250929050565b6000806000606084860312156125a757600080fd5b60006125b58682870161249a565b93505060206125c68682870161249a565b92505060406125d786828701612518565b9150509250925092565b600080600080608085870312156125f757600080fd5b60006126058782880161249a565b94505060206126168782880161249a565b935050604061262787828801612518565b925050606085013567ffffffffffffffff81111561264457600080fd5b612650878288016124ee565b91505092959194509250565b6000806040838503121561266f57600080fd5b600061267d8582860161249a565b925050602061268e858286016124af565b9150509250929050565b600080604083850312156126ab57600080fd5b60006126b98582860161249a565b92505060206126ca85828601612518565b9150509250929050565b6000602082840312156126e657600080fd5b60006126f4848285016124c4565b91505092915050565b60006020828403121561270f57600080fd5b600061271d848285016124d9565b91505092915050565b60006020828403121561273857600080fd5b600061274684828501612518565b91505092915050565b612758816132d9565b82525050565b612767816132eb565b82525050565b600061277882613181565b6127828185613197565b935061279281856020860161335c565b61279b81613528565b840191505092915050565b60006127b18261318c565b6127bb81856131a8565b93506127cb81856020860161335c565b6127d481613528565b840191505092915050565b60006127ea8261318c565b6127f481856131b9565b935061280481856020860161335c565b80840191505092915050565b6000815461281d8161338f565b61282781866131b9565b94506001821660008114612842576001811461285357612886565b60ff19831686528186019350612886565b61285c8561316c565b60005b8381101561287e5781548189015260018201915060208101905061285f565b838801955050505b50505092915050565b600061289c6032836131a8565b91506128a782613539565b604082019050919050565b60006128bf6025836131a8565b91506128ca82613588565b604082019050919050565b60006128e2601c836131a8565b91506128ed826135d7565b602082019050919050565b6000612905600a836131b9565b915061291082613600565b600a82019050919050565b60006129286024836131a8565b915061293382613629565b604082019050919050565b600061294b6019836131a8565b915061295682613678565b602082019050919050565b600061296e6063836131b9565b9150612979826136a1565b606382019050919050565b6000612991600b836131b9565b915061299c8261373c565b600b82019050919050565b60006129b4602c836131a8565b91506129bf82613765565b604082019050919050565b60006129d7600d836131b9565b91506129e2826137b4565b600d82019050919050565b60006129fa6038836131a8565b9150612a05826137dd565b604082019050919050565b6000612a1d602a836131a8565b9150612a288261382c565b604082019050919050565b6000612a406029836131a8565b9150612a4b8261387b565b604082019050919050565b6000612a63602e836131a8565b9150612a6e826138ca565b604082019050919050565b6000612a866002836131b9565b9150612a9182613919565b600282019050919050565b6000612aa96020836131a8565b9150612ab482613942565b602082019050919050565b6000612acc6031836131a8565b9150612ad78261396b565b604082019050919050565b6000612aef602c836131a8565b9150612afa826139ba565b604082019050919050565b6000612b12602f836131a8565b9150612b1d82613a09565b604082019050919050565b6000612b35600a836131b9565b9150612b4082613a58565b600a82019050919050565b6000612b586021836131a8565b9150612b6382613a81565b604082019050919050565b6000612b7b6024836131a8565b9150612b8682613ad0565b604082019050919050565b6000612b9e600a836131b9565b9150612ba982613b1f565b600a82019050919050565b6000612bc1601d836131b9565b9150612bcc82613b48565b601d82019050919050565b6000612be46031836131a8565b9150612bef82613b71565b604082019050919050565b6000612c076005836131b9565b9150612c1282613bc0565b600582019050919050565b612c2681613343565b82525050565b6000612c3882846127df565b915081905092915050565b6000612c4f82856127df565b9150612c5b82846127df565b91508190509392505050565b6000612c7382866127df565b9150612c7f82856127df565b9150612c8b82846127df565b9150819050949350505050565b6000612ca48287612810565b9150612cb082866127df565b9150612cbc8285612810565b9150612cc882846127df565b9150612cd3826129ca565b915081905095945050505050565b6000612cec826128f8565b9150612cf882846127df565b915081905092915050565b6000612d0e82612984565b9150612d1a82846127df565b915081905092915050565b6000612d3082612b28565b9150612d3c82856127df565b9150612d4782612961565b9150612d5382846127df565b9150612d5e82612a79565b91508190509392505050565b6000612d7582612b91565b9150612d8182846127df565b915081905092915050565b6000612d9782612bb4565b9150612da382846127df565b915081905092915050565b6000612db982612bfa565b9150612dc582846127df565b915081905092915050565b6000602082019050612de5600083018461274f565b92915050565b6000608082019050612e00600083018761274f565b612e0d602083018661274f565b612e1a6040830185612c1d565b8181036060830152612e2c818461276d565b905095945050505050565b6000604082019050612e4c600083018561274f565b612e596020830184612c1d565b9392505050565b6000602082019050612e75600083018461275e565b92915050565b60006020820190508181036000830152612e9581846127a6565b905092915050565b60006060820190508181036000830152612eb781866127a6565b9050612ec66020830185612c1d565b612ed3604083018461274f565b949350505050565b60006020820190508181036000830152612ef48161288f565b9050919050565b60006020820190508181036000830152612f14816128b2565b9050919050565b60006020820190508181036000830152612f34816128d5565b9050919050565b60006020820190508181036000830152612f548161291b565b9050919050565b60006020820190508181036000830152612f748161293e565b9050919050565b60006020820190508181036000830152612f94816129a7565b9050919050565b60006020820190508181036000830152612fb4816129ed565b9050919050565b60006020820190508181036000830152612fd481612a10565b9050919050565b60006020820190508181036000830152612ff481612a33565b9050919050565b6000602082019050818103600083015261301481612a56565b9050919050565b6000602082019050818103600083015261303481612a9c565b9050919050565b6000602082019050818103600083015261305481612abf565b9050919050565b6000602082019050818103600083015261307481612ae2565b9050919050565b6000602082019050818103600083015261309481612b05565b9050919050565b600060208201905081810360008301526130b481612b4b565b9050919050565b600060208201905081810360008301526130d481612b6e565b9050919050565b600060208201905081810360008301526130f481612bd7565b9050919050565b60006020820190506131106000830184612c1d565b92915050565b6000613120613131565b905061312c82826133c1565b919050565b6000604051905090565b600067ffffffffffffffff821115613156576131556134f9565b5b61315f82613528565b9050602081019050919050565b60008190508160005260206000209050919050565b600081519050919050565b600081519050919050565b600082825260208201905092915050565b600082825260208201905092915050565b600081905092915050565b60006131cf82613343565b91506131da83613343565b9250827fffffffffffffffffffffffffffffffffffffffffffffffffffffffffffffffff0382111561320f5761320e61346c565b5b828201905092915050565b600061322582613343565b915061323083613343565b9250826132405761323f61349b565b5b828204905092915050565b600061325682613343565b915061326183613343565b9250817fffffffffffffffffffffffffffffffffffffffffffffffffffffffffffffffff048311821515161561329a5761329961346c565b5b828202905092915050565b60006132b082613343565b91506132bb83613343565b9250828210156132ce576132cd61346c565b5b828203905092915050565b60006132e482613323565b9050919050565b60008115159050919050565b60007fffffffff0000000000000000000000000000000000000000000000000000000082169050919050565b600073ffffffffffffffffffffffffffffffffffffffff82169050919050565b6000819050919050565b82818337600083830152505050565b60005b8381101561337a57808201518184015260208101905061335f565b83811115613389576000848401525b50505050565b600060028204905060018216806133a757607f821691505b602082108114156133bb576133ba6134ca565b5b50919050565b6133ca82613528565b810181811067ffffffffffffffff821117156133e9576133e86134f9565b5b80604052505050565b60006133fd82613343565b91507fffffffffffffffffffffffffffffffffffffffffffffffffffffffffffffffff8214156134305761342f61346c565b5b600182019050919050565b600061344682613343565b915061345183613343565b9250826134615761346061349b565b5b828206905092915050565b7f4e487b7100000000000000000000000000000000000000000000000000000000600052601160045260246000fd5b7f4e487b7100000000000000000000000000000000000000000000000000000000600052601260045260246000fd5b7f4e487b7100000000000000000000000000000000000000000000000000000000600052602260045260246000fd5b7f4e487b7100000000000000000000000000000000000000000000000000000000600052604160045260246000fd5b6000601f19601f8301169050919050565b7f4552433732313a207472616e7366657220746f206e6f6e20455243373231526560008201527f63656976657220696d706c656d656e7465720000000000000000000000000000602082015250565b7f4552433732313a207472616e736665722066726f6d20696e636f72726563742060008201527f6f776e6572000000000000000000000000000000000000000000000000000000602082015250565b7f4552433732313a20746f6b656e20616c7265616479206d696e74656400000000600082015250565b7f54484952445f574f524400000000000000000000000000000000000000000000600082015250565b7f4552433732313a207472616e7366657220746f20746865207a65726f2061646460008201527f7265737300000000000000000000000000000000000000000000000000000000602082015250565b7f4552433732313a20617070726f766520746f2063616c6c657200000000000000600082015250565b7f222c20226465736372697074696f6e223a20224120686967686c79206163636c60008201527f61696d656420636f6c6c656374696f6e206f6620737175617265732e222c202260208201527f696d616765223a2022646174613a696d6167652f7376672b786d6c3b6261736560408201527f36342c0000000000000000000000000000000000000000000000000000000000606082015250565b7f5345434f4e445f574f5244000000000000000000000000000000000000000000600082015250565b7f4552433732313a206f70657261746f7220717565727920666f72206e6f6e657860008201527f697374656e7420746f6b656e0000000000000000000000000000000000000000602082015250565b7f3c2f746578743e3c2f7376673e00000000000000000000000000000000000000600082015250565b7f4552433732313a20617070726f76652063616c6c6572206973206e6f74206f7760008201527f6e6572206e6f7220617070726f76656420666f7220616c6c0000000000000000602082015250565b7f4552433732313a2062616c616e636520717565727920666f7220746865207a6560008201527f726f206164647265737300000000000000000000000000000000000000000000602082015250565b7f4552433732313a206f776e657220717565727920666f72206e6f6e657869737460008201527f656e7420746f6b656e0000000000000000000000000000000000000000000000602082015250565b7f45524337323155524953746f726167653a2055524920736574206f66206e6f6e60008201527f6578697374656e7420746f6b656e000000000000000000000000000000000000602082015250565b7f227d000000000000000000000000000000000000000000000000000000000000600082015250565b7f4552433732313a206d696e7420746f20746865207a65726f2061646472657373600082015250565b7f45524337323155524953746f726167653a2055524920717565727920666f722060008201527f6e6f6e6578697374656e7420746f6b656e000000000000000000000000000000602082015250565b7f4552433732313a20617070726f76656420717565727920666f72206e6f6e657860008201527f697374656e7420746f6b656e0000000000000000000000000000000000000000602082015250565b7f4552433732314d657461646174613a2055524920717565727920666f72206e6f60008201527f6e6578697374656e7420746f6b656e0000000000000000000000000000000000602082015250565b7f7b226e616d65223a202200000000000000000000000000000000000000000000600082015250565b7f4552433732313a20617070726f76616c20746f2063757272656e74206f776e6560008201527f7200000000000000000000000000000000000000000000000000000000000000602082015250565b7f4d6178206e756d626572206f66204e4654732068617665206265656e206d696e60008201527f7465642e00000000000000000000000000000000000000000000000000000000602082015250565b7f46495253545f574f524400000000000000000000000000000000000000000000600082015250565b7f646174613a6170706c69636174696f6e2f6a736f6e3b6261736536342c000000600082015250565b7f4552433732313a207472616e736665722063616c6c6572206973206e6f74206f60008201527f776e6572206e6f7220617070726f766564000000000000000000000000000000602082015250565b7f434f4c4f52000000000000000000000000000000000000000000000000000000600082015250565b613bf2816132d9565b8114613bfd57600080fd5b50565b613c09816132eb565b8114613c1457600080fd5b50565b613c20816132f7565b8114613c2b57600080fd5b50565b613c3781613343565b8114613c4257600080fd5b5056fe416e204e465420772f20494420257320686173206265656e206d696e74656420746f2025734142434445464748494a4b4c4d4e4f505152535455565758595a6162636465666768696a6b6c6d6e6f707172737475767778797a303132333435363738392b2fa26469706673582212201c2cce5f5fa8bc5719c5deb511b10a4e79ffef1b909558ae87f43a6876a9c2af64736f6c634300080400333c73766720786d6c6e733d27687474703a2f2f7777772e77332e6f72672f323030302f73766727207072657365727665417370656374526174696f3d27784d696e594d696e206d656574272076696577426f783d273020302033353020333530273e3c7374796c653e2e62617365207b2066696c6c3a2077686974653b20666f6e742d66616d696c793a2073657269663b20666f6e742d73697a653a20323470783b207d3c2f7374796c653e3c726563742077696474683d273130302527206865696768743d2731303025272066696c6c3d27272f3e3c7465787420783d273530252720793d273530252720636c6173733d27626173652720646f6d696e616e742d626173656c696e653d276d6964646c652720746578742d616e63686f723d276d6964646c65273e",
    "linkReferences": {},
    "deployedLinkReferences": {}
}